:100000000C942A000C9447000C9447000C94470071
:100010000C9447000C9447000C9447000C94000784
:100020000C9447000C94CD060C9447000C944700A8
:100030000C9447000C9447000C9447000C94470024
:100040000C9447000C9447000C9447000C94470014
:100050000C94470011241FBECFE5D8E0DEBFCDBF12
:1000600011E0A0E6B0E0E4E2FFE302C005900D92EB
:10007000A03DB107D9F711E0A0EDB1E001C01D929C
:10008000A33DB107E1F70E940A170C94901F0C944E
:100090000000EF92FF920F931F937B018C0120E0F1
:1000A00030E040E05FE40E94490388238CF0C801FF
:1000B000B70120E030E040E05FE40E94C1010E940F
:1000C000A9039B01AC01205030404040504806C07D
:1000D000C801B7010E94A9039B01AC01B901CA0183
:1000E0001F910F91FF90EF900895A0E0B0E0EBE733
:1000F000F0E00C94141FDC012B01FA019C9192306A
:1001000008F439C1EB018881823008F433C194309E
:1001100069F4843009F02FC111969C91119789815F
:10012000981709F428C1AAEBB1E025C1843009F47D
:1001300021C18230A9F4923009F01DC19A01AD01AC
:1001400088E0EA010990AE01E90109929E0181501F
:10015000C1F7E201898111969C918923818308C1AD
:10016000923009F407C112962D903C901397EB0141
:100170008A819B811496AD90BD90CD90DC901797AD
:10018000EC80FD800E811F819101281B390BB90184
:1001900037FF04C066277727621B730B6032710537
:1001A0000CF061C0121613066CF537014801062EDB
:1001B00004C096948794779467940A94D2F721E0C8
:1001C00030E040E050E004C0220F331F441F551FB1
:1001D0006A95D2F721503040404050402E213F21B7
:1001E00040235123211531054105510521F021E01E
:1001F00030E040E050E079018A01E628F72808293C
:1002000019293CC0232BD1F1260E371E350146019A
:10021000062E04C096948794779467940A94D2F734
:1002200021E030E040E050E004C0220F331F441FC3
:10023000551F6A95D2F721503040404050402A2146
:100240003B214C215D21211531054105510521F04E
:1002500021E030E040E050E059016A01A628B728CB
:10026000C828D9280BC0821593052CF01C01AA249C
:10027000BB24650103C0EE24FF24870111969C91E5
:10028000D20111968C91981709F445C0992339F041
:10029000A80197012A193B094C095D0906C0A6016E
:1002A00095012E193F09400B510B57FD08C01182D3
:1002B0003382228224833583468357831DC081E0A5
:1002C00081833382228288279927DC01821B930B4A
:1002D000A40BB50B84839583A683B7830DC0220F2F
:1002E000331F441F551F24833583468357838281E0
:1002F000938101979383828324813581468157813D
:10030000DA01C9010197A109B1098F5F9F4FAF4F72
:10031000BF4328F30BC0918333822282EA0CFB1C7B
:100320000C1D1D1DE482F5820683178383E0808304
:10033000248135814681578157FF1AC0C901AA27F8
:1003400097FDA095BA2F81709070A070B0705695EF
:10035000479537952795822B932BA42BB52B848318
:100360009583A683B7838281938101969383828349
:10037000DF0101C0D201CD01CDB7DEB7E2E10C94BF
:10038000301FA0E2B0E0E7ECF1E00C94201F69839D
:100390007A838B839C832D833E834F835887E9E048
:1003A000EE2EF12CEC0EFD1ECE010196B7010E943F
:1003B000D2048E010F5E1F4FCE010596B8010E9438
:1003C000D2048A8991E089278A8BC701B801AE01DE
:1003D000475E5F4F0E9475000E94FD03A096E6E015
:1003E0000C943C1FA0E2B0E0E8EFF1E00C94201F79
:1003F00069837A838B839C832D833E834F835887C5
:10040000F9E0EF2EF12CEC0EFD1ECE010196B701A6
:100410000E94D2048E010F5E1F4FCE010596B801D7
:100420000E94D204C701B801AE01475E5F4F0E942F
:1004300075000E94FD03A096E6E00C943C1FA0E22C
:10044000B0E0E5E2F2E00C94141F69837A838B83B9
:100450009C832D833E834F835887CE010196BE0136
:10046000675F7F4F0E94D204CE010596BE016F5E8A
:100470007F4F0E94D2049985923088F0898982301A
:10048000C8F0943019F4823051F404C0843029F457
:10049000923081F48AEB91E0C6C0923049F420E0BA
:1004A0009A858A89981321E02A87CE010996BBC0D4
:1004B000823049F420E09A858A89981321E02A8BBA
:1004C000CE014196B0C02D843E844F8458886D88FB
:1004D0007E888F88988CEE24FF248701AA24BB2471
:1004E000650140E050E060E070E0E0E0F0E0C10174
:1004F00081709070892BE9F0E60CF71C081D191D1E
:100500009A01AB012A0D3B1D4C1D5D1D80E090E062
:10051000A0E0B0E0E614F7040805190520F481E036
:1005200090E0A0E0B0E0BA01A901480F591F6A1F8E
:100530007B1FAA0CBB1CCC1CDD1C97FE08C081E0F5
:1005400090E0A0E0B0E0A82AB92ACA2ADB2A3196B6
:10055000E032F10549F0660C771C881C991C569412
:10056000479437942794C3CFFA85EA892B893C892D
:100570008B859C85280F391F2E5F3F4F17C0CA01FE
:1005800081709070892B61F016950795F794E79428
:1005900080E090E0A0E0B0E8E82AF92A0A2B1B2BC3
:1005A00076956795579547952F5F3F4F77FDE7CF36
:1005B0000CC0440F551F661F771F17FD4160EE0CDE
:1005C000FF1C001F111F21503040403090E05907A0
:1005D00090E0690790E4790760F32B8F3C8FDB0193
:1005E000CA018F779070A070B07080349105A1051A
:1005F000B10561F447FD0AC0E114F10401051105DC
:1006000029F0405C5F4F6F4F7F4F40781A8EFE1786
:1006100011F081E08A8F4D8F5E8F6F8F78A383E01A
:10062000898FCE0149960E94FD03A096E2E10C94C9
:10063000301FA8E1B0E0EFE1F3E00C94201F6983E4
:100640007A838B839C832D833E834F83588789E0F5
:10065000E82EF12CEC0EFD1ECE010196B7010E9492
:10066000D2048E010F5E1F4FCE010596B8010E9485
:10067000D2048985823040F08989823028F0C70110
:10068000B8010E944A0501C08FEF6896E6E00C941D
:100690003C1FA8E1B0E0EFE4F3E00C94201F698375
:1006A0007A838B839C832D833E834F83588789E095
:1006B000E82EF12CEC0EFD1ECE010196B7010E9432
:1006C000D2048E010F5E1F4FCE010596B8010E9425
:1006D000D2048985823040F08989823028F0C701B0
:1006E000B8010E944A0501C08FEF6896E6E00C94BD
:1006F0003C1FA8E1B0E0EFE7F3E00C94201F698312
:100700007A838B839C832D833E834F83588789E034
:10071000E82EF12CEC0EFD1ECE010196B7010E94D1
:10072000D2048E010F5E1F4FCE010596B8010E94C4
:10073000D2048985823040F08989823028F0C7014F
:10074000B8010E944A0501C081E06896E6E00C9479
:100750003C1FACE0B0E0EFEAF3E00C94241F6983A7
:100760007A838B839C83CE010196BE016B5F7F4FA2
:100770000E94D2048D81823061F1823050F1843048
:1007800021F48E81882351F12EC02F81388537FDC9
:1007900020C06E812F3131051CF06623F9F023C093
:1007A0008EE190E0821B930B29853A854B855C8511
:1007B00004C056954795379527958A95D2F76623B5
:1007C000B1F050954095309521953F4F4F4F5F4F79
:1007D0000EC020E030E040E050E009C02FEF3FEFD6
:1007E0004FEF5FE704C020E030E040E050E8B9019F
:1007F000CA012C96E2E00C94401FDF92EF92FF9228
:100800000F931F93FC01E480F58006811781D1804E
:100810008081823048F480E090E0A0E1B0E0E82AF6
:10082000F92A0A2B1B2BA5C0843009F49FC0823003
:1008300021F4EE24FF24870105C0E114F104010531
:10084000110519F4E0E0F0E096C0628173819FEF3A
:10085000623879070CF05BC022E83FEF261B370BAC
:100860002A3131052CF020E030E040E050E02AC091
:10087000B801A701022E04C0769567955795479554
:100880000A94D2F781E090E0A0E0B0E004C0880FC5
:10089000991FAA1FBB1F2A95D2F70197A109B10979
:1008A0008E219F21A023B1230097A105B10521F03E
:1008B00081E090E0A0E0B0E09A01AB01282B392B59
:1008C0004A2B5B2BDA01C9018F779070A070B07052
:1008D00080349105A105B10539F427FF09C0205CDA
:1008E0003F4F4F4F5F4F04C0215C3F4F4F4F5F4F13
:1008F000E0E0F0E02030A0E03A07A0E04A07A0E402
:100900005A0710F0E1E0F0E079018A0127C0603871
:10091000710564F5FB01E158FF4FD801C7018F77DE
:100920009070A070B07080349105A105B10539F4C4
:10093000E7FE0DC080E490E0A0E0B0E004C08FE3EB
:1009400090E0A0E0B0E0E80EF91E0A1F1B1F17FFA1
:1009500005C016950795F794E794319687E01695AC
:100960000795F794E7948A95D1F705C0EE24FF2404
:100970008701EFEFF0E06E2F679566276795902F60
:100980009F77D794DD24D7948E2F8695492F462BB9
:10099000582F5D29B701CA011F910F91FF90EF9069
:1009A000DF900895FC01DB01408151812281622F9B
:1009B0006F7770E0221F2227221F9381892F880FD3
:1009C000822B282F30E0991F9927991F11969C930D
:1009D000119721153105A9F54115510561057105DD
:1009E00011F482E037C082E89FEF13969C938E93B8
:1009F00012979A01AB0167E0220F331F441F551F66
:100A00006A95D1F783E08C930DC0220F331F441FEA
:100A1000551F12968D919C911397019713969C9355
:100A20008E931297203080E0380780E0480780E4FA
:100A3000580758F314962D933D934D935C93179755
:100A400008952F3F310579F4411551056105710570
:100A500019F484E08C93089564FF03C081E08C93C3
:100A600012C01C9210C02F57304013963C932E9307
:100A7000129783E08C9387E0440F551F661F771F02
:100A80008A95D1F7706414964D935D936D937C9322
:100A9000179708951F93DC01FB019C91923008F495
:100AA00047C08081823008F443C0943051F41196DD
:100AB0001C91843099F58181682F70E0611B710968
:100AC0003FC0843021F0923031F48230B9F181811D
:100AD000882389F12DC011961C9111978230F1F075
:100AE00081811817D9F412962D913C911397828128
:100AF00093818217930794F028173907BCF0149656
:100B00008D919D910D90BC91A02D248135814681C0
:100B10005781281739074A075B0718F4112341F05A
:100B20000AC082179307A407B50740F4112319F0F0
:100B300061E070E005C06FEF7FEF02C060E070E041
:100B4000CB011F910895DF93CF9300D000D0CDB794
:100B5000DEB79C838B831A821982EBE2F0E08081FE
:100B600082608083EAE2F0E0808188608083EAE24C
:100B7000F0E0808180618083E0E4F0E08081806843
:100B80008083E0E4F0E080818E7F8083A0E4B0E0A9
:100B9000EB81FC81808181708170982F9295990FF3
:100BA000990F907C8C918F7B892B8C93A0E4B0E083
:100BB000E0E4F0E08081282F2F7CEB81FC818181B3
:100BC000882F90E082959295907F9827807F982734
:100BD000822B8C93A0E4B0E0EB81FC818281817058
:100BE0008170982F990F990F990F8C91877F892B7E
:100BF0008C93A0E4B0E0E0E4F0E08081282F297F2E
:100C0000EB81FC818381882F90E0880F991F86708B
:100C1000822B8C93EB81FC8184819581A681B781A5
:100C2000880F991FAA1FBB1F880F991FAA1FBB1FE0
:100C3000880F991FAA1FBB1F9C01AD0180E092E1A4
:100C4000AAE7B0E0BC01CD010E94F21EDA01C901A1
:100C500001979A838983E0E4F0E089819A81892F62
:100C600099278083E9E2F0E0898180830F900F90DB
:100C70000F900F90CF91DF910895DF93CF930F9254
:100C8000CDB7DEB78983EBE2F0E080818072882304
:100C9000D1F3ECE2F0E0898180830F90CF91DF9176
:100CA0000895DF93CF93CDB7DEB7EBE2F0E080811C
:100CB00080788823D1F3ECE2F0E08081CF91DF915E
:100CC0000895DF93CF9300D00F92CDB7DEB79B830B
:100CD0008A8319820EC08981282F30E08A819B8106
:100CE000FC01E20FF31F80810E943D0689818F5F26
:100CF00089838981282F30E08A819B81FC01E20F62
:100D0000F31F8081882339F70F900F900F90CF91B8
:100D1000DF9108950F931F93DF93CF9300D00F922D
:100D2000CDB7DEB79B838A8319828981282F30E073
:100D30008A819B818C01020F131F0E945106F801CA
:100D400080830FC089818F5F89838981282F30E05C
:100D50008A819B818C01020F131F0E945106F801AA
:100D600080838981282F30E08A819B81FC01E20FFA
:100D7000F31F8081833231F78981282F30E08A8107
:100D80009B81FC01E20FF31F10820F900F900F90D8
:100D9000CF91DF911F910F9108951F920F920FB67F
:100DA0000F9211242F933F934F935F936F937F93F1
:100DB0008F939F93AF93BF93EF93FF93DF93CF9363
:100DC000CDB7DEB78091D0019091D101009729F085
:100DD000E091D001F091D1010995CF91DF91FF9180
:100DE000EF91BF91AF919F918F917F916F915F91A3
:100DF0004F913F912F910F900FBE0F901F9018951C
:100E00001F920F920FB60F9211242F933F934F937F
:100E10005F936F937F938F939F93AF93BF93EF9362
:100E2000FF93DF93CF93CDB7DEB78091D001909140
:100E3000D101009729F0E091D001F091D1010995FD
:100E4000CF91DF91FF91EF91BF91AF919F918F91E2
:100E50007F916F915F914F913F912F910F900FBEB6
:100E60000F901F901895DF93CF9300D0CDB7DEB7CA
:100E70009A838983EFE4F0E0808188608083EFE4E7
:100E8000F0E0808184608083E981FA818481882315
:100E9000A9F4EFE4F0E080818E7F8083EFE4F0E05E
:100EA00080818D7F8083EEE4F0E08081877F808386
:100EB000EEE4F0E080818F7E808319C0E981FA81C1
:100EC00084818430A1F4EFE4F0E080818E7F808320
:100ED000EFE4F0E080818D7F8083EEE4F0E08081BC
:100EE00088608083EEE4F0E080818F7E8083AEE4D2
:100EF000B0E0EEE4F0E08081982F987FE981FA81FC
:100F00008581892B8C93ACE4B0E0E981FA81808102
:100F1000918111969C938E93AAE4B0E0E981FA81C5
:100F20008281938111969C938E93E9E5F0E0808114
:100F300080618083E9E5F0E08081846080830F90A8
:100F40000F90CF91DF910895DF93CF93CDB7DEB7A8
:100F5000EFE4F0E01082EEE4F0E01082ECE4F0E088
:100F600011821082EAE4F0E011821082E9E5F0E0FB
:100F7000808180618083E9E5F0E080818460808306
:100F80001092D1011092D001CF91DF910895DF939B
:100F9000CF9300D0CDB7DEB79A83898389819A81B8
:100FA0009093D1018093D0010F900F90CF91DF915A
:100FB0000895DF93CF9300D000D00F92CDB7DEB766
:100FC00089836A834B838A81883008F0D5C0898100
:100FD000843008F0D1C08981282F30E03D832C83F4
:100FE0008C819D818130910509F443C02C813D8124
:100FF000223031052CF48C819D81009771F0BCC0AA
:101000002C813D812230310509F45FC08C819D81A6
:101010008330910509F485C0AFC08B818130A1F484
:10102000AAE3B0E0EAE3F0E08081482F8A81282F2C
:1010300030E081E090E0022E02C0880F991F0A94F0
:10104000E2F7842B8C9398C0AAE3B0E0EAE3F0E0E7
:101050008081482F8A81282F30E081E090E0022EA5
:1010600002C0880F991F0A94E2F7809584238C931D
:1010700083C08B818130A1F4A7E3B0E0E7E3F0E027
:101080008081482F8A81282F30E081E090E0022E75
:1010900002C0880F991F0A94E2F7842B8C936CC0CE
:1010A000A7E3B0E0E7E3F0E08081482F8A81282FB2
:1010B00030E081E090E0022E02C0880F991F0A9470
:1010C000E2F7809584238C9357C08B818130A1F403
:1010D000A4E3B0E0E4E3F0E08081482F8A81282F88
:1010E00030E081E090E0022E02C0880F991F0A9440
:1010F000E2F7842B8C9340C0A4E3B0E0E4E3F0E09B
:101100008081482F8A81282F30E081E090E0022EF4
:1011100002C0880F991F0A94E2F7809584238C936C
:101120002BC08B818130A1F4A1E3B0E0E1E3F0E0DA
:101130008081482F8A81282F30E081E090E0022EC4
:1011400002C0880F991F0A94E2F7842B8C9314C075
:10115000A1E3B0E0E1E3F0E08081482F8A81282F0D
:1011600030E081E090E0022E02C0880F991F0A94BF
:10117000E2F7809584238C930F900F900F900F903F
:101180000F90CF91DF910895DF93CF9300D000D0DF
:101190000F92CDB7DEB789836A834B838A8188300B
:1011A00008F0D5C08981843008F0D1C08981282F0A
:1011B00030E03D832C838C819D818130910509F441
:1011C00043C02C813D81223031052CF48C819D81DE
:1011D000009771F0BCC02C813D812230310509F4AB
:1011E0005FC08C819D818330910509F485C0AFC0BB
:1011F0008B818823A9F4ABE3B0E0EBE3F0E08081DE
:10120000482F8A81282F30E081E090E0022E02C032
:10121000880F991F0A94E2F7809584238C9397C0D6
:10122000ABE3B0E0EBE3F0E08081482F8A81282F28
:1012300030E081E090E0022E02C0880F991F0A94EE
:10124000E2F7842B8C9383C08B818823A9F4A8E3D5
:10125000B0E0E8E3F0E08081482F8A81282F30E079
:1012600081E090E0022E02C0880F991F0A94E2F7F5
:10127000809584238C936BC0A8E3B0E0E8E3F0E0B2
:101280008081482F8A81282F30E081E090E0022E73
:1012900002C0880F991F0A94E2F7842B8C9357C0E1
:1012A0008B818823A9F4A5E3B0E0E5E3F0E0808139
:1012B000482F8A81282F30E081E090E0022E02C082
:1012C000880F991F0A94E2F7809584238C933FC07E
:1012D000A5E3B0E0E5E3F0E08081482F8A81282F84
:1012E00030E081E090E0022E02C0880F991F0A943E
:1012F000E2F7842B8C932BC08B818823A9F4A2E383
:10130000B0E0E2E3F0E08081482F8A81282F30E0CE
:1013100081E090E0022E02C0880F991F0A94E2F744
:10132000809584238C9313C0A2E3B0E0E2E3F0E065
:101330008081482F8A81282F30E081E090E0022EC2
:1013400002C0880F991F0A94E2F7842B8C930F90A8
:101350000F900F900F900F90CF91DF910895DF9332
:10136000CF9300D000D00F92CDB7DEB78A836B83C6
:1013700019828B81883008F084C08A81843008F01B
:1013800080C08A81282F30E03D832C834C815D8191
:101390004130510579F18C819D818230910534F481
:1013A0002C813D812115310569F06BC04C815D8137
:1013B00042305105B9F18C819D818330910509F44A
:1013C00049C05FC0E9E3F0E08081282F30E08B81E5
:1013D000882F90E0A90102C0559547958A95E2F7BC
:1013E000CA0181709070882319F081E0898349C017
:1013F000198247C0E6E3F0E08081282F30E08B813E
:10140000882F90E0A90102C0559547958A95E2F78B
:10141000CA0181709070882319F081E0898331C0FE
:1014200019822FC0E3E3F0E08081282F30E08B8128
:10143000882F90E0A90102C0559547958A95E2F75B
:10144000CA0181709070882319F081E0898319C0E6
:10145000198217C0E0E3F0E08081282F30E08B8113
:10146000882F90E0A90102C0559547958A95E2F72B
:10147000CA0181709070882319F081E0898301C0CE
:10148000198289810F900F900F900F900F90CF913C
:10149000DF910895DF93CF9300D000D0CDB7DEB7B2
:1014A00089836A838981843090F58981282F30E08F
:1014B0003C832B838B819C8181309105D1F02B81E2
:1014C0003C81223031052CF48B819C81009761F0A6
:1014D0001EC02B813C812230310581F08B819C81A3
:1014E0008330910581F013C0EAE3F0E08A818083C4
:1014F0000EC0E7E3F0E08A81808309C0E4E3F0E016
:101500008A81808304C0E1E3F0E08A8180830F90C8
:101510000F900F900F90CF91DF910895DF93CF93AD
:1015200000D000D0CDB7DEB789836A83898184304B
:1015300090F58981282F30E03C832B838B819C811F
:1015400081309105D1F02B813C81223031052CF482
:101550008B819C81009761F01EC02B813C812230E1
:10156000310581F08B819C818330910581F013C01E
:10157000EBE3F0E08A8180830EC0E8E3F0E08A814B
:10158000808309C0E5E3F0E08A81808304C0E2E360
:10159000F0E08A8180830F900F900F900F90CF9191
:1015A000DF910895DF93CF9300D000D00F92CDB795
:1015B000DEB78A8319828A81843010F01D8234C09C
:1015C0008A81282F30E03C832B838B819C81813062
:1015D0009105D1F02B813C81223031052CF48B8197
:1015E0009C81009761F01EC02B813C812230310527
:1015F00081F08B819C818330910581F013C0E9E3F8
:10160000F0E0808189830EC0E6E3F0E08081898389
:1016100009C0E3E3F0E08081898304C0E0E3F0E007
:101620008081898399819D838D810F900F900F9088
:101630000F900F90CF91DF910895DF93CF93CDB7A7
:10164000DEB72E970FB6F894DEBF0FBECDBF80E099
:1016500061E041E00E94D90780E062E041E00E9441
:10166000D90780E090E0A0EAB1E48B879C87AD8742
:10167000BE876B857C858D859E8520E030E04AEFB6
:1016800054E40E941F02DC01CB018F839887A98755
:10169000BA876F81788589859A8520E030E040E8B7
:1016A0005FE30E94790388232CF481E090E09E831D
:1016B0008D833FC06F81788589859A8520E03FEFD3
:1016C0004FE757E40E94190318164CF56B857C858B
:1016D0008D859E8520E030E040E251E40E941F02AB
:1016E000DC01CB01BC01CD010E944900DC01CB0132
:1016F0009E838D830FC088EC90E09C838B838B81CD
:101700009C810197F1F79C838B838D819E8101974A
:101710009E838D838D819E81009769F714C06F81B0
:10172000788589859A850E944900DC01CB019E83DA
:101730008D838D819E819A83898389819A81019786
:10174000F1F79A83898380E063E041E00E94D90742
:1017500080E064E041E00E94D90780E065E041E07C
:101760000E94D90780E066E041E00E94D90783E348
:101770000E94CF0B82E30E94CF0B88E20E94CF0B26
:101780008CE00E94CF0B81E00E94CF0B2E960FB60B
:10179000F894DEBF0FBECDBFCF91DF9108950F93B8
:1017A0001F93DF93CF93CDB7DEB7C356D0400FB6AC
:1017B000F894DEBF0FBECDBFFE01ED59FF4F808311
:1017C00080E061E040E00E94C408FE01E15AFF4F62
:1017D00080E090E0A0E8BFE380839183A283B3839D
:1017E0008E01055A1F4FFE01E15AFF4F6081718142
:1017F0008281938120E030E04AEF54E40E941F028E
:10180000DC01CB01F80180839183A283B383FE01C5
:10181000E55AFF4F608171818281938120E030E041
:1018200040E85FE30E947903882344F4FE01E75A0D
:10183000FF4F81E090E09183808364C0FE01E55A10
:10184000FF4F608171818281938120E03FEF4FE7FC
:1018500057E40E94190318160CF043C0FE01E15A28
:10186000FF4F608171818281938120E030E040E20E
:1018700051E40E941F02DC01CB018E01075A1F4F69
:10188000BC01CD010E944900DC01CB01F80191832C
:1018900080831FC0FE01E95AFF4F88EC90E09183DE
:1018A0008083FE01E95AFF4F808191810197F1F712
:1018B000FE01E95AFF4F91838083DE01A75ABF4F93
:1018C000FE01E75AFF4F80819181019711969C9309
:1018D0008E93FE01E75AFF4F808191810097D1F6E8
:1018E00027C08E01075A1F4FFE01E55AFF4F608146
:1018F0007181828193810E944900DC01CB01F80152
:1019000091838083DE01AB5ABF4FFE01E75AFF4F40
:10191000808191818D939C93FE01EB5AFF4F8081D2
:1019200091810197F1F7FE01EB5AFF4F918380837C
:1019300080E062E041E00E94C408FE01EF5AFF4FE0
:1019400080E090E0A0E8BFE380839183A283B3832B
:101950008E01035B1F4FFE01EF5AFF4F60817181C3
:101960008281938120E030E04AEF54E40E941F021C
:10197000DC01CB01F80180839183A283B383FE0154
:10198000E35BFF4F608171818281938120E030E0D1
:1019900040E85FE30E947903882344F4FE01E55B9D
:1019A000FF4F81E090E09183808364C0FE01E35BA0
:1019B000FF4F608171818281938120E03FEF4FE78B
:1019C00057E40E94190318160CF043C0FE01EF5AA9
:1019D000FF4F608171818281938120E030E040E29D
:1019E00051E40E941F02DC01CB018E01055B1F4FF9
:1019F000BC01CD010E944900DC01CB01F8019183BB
:101A000080831FC0FE01E75BFF4F88EC90E091836D
:101A10008083FE01E75BFF4F808191810197F1F7A1
:101A2000FE01E75BFF4F91838083DE01A55BBF4F23
:101A3000FE01E55BFF4F80819181019711969C9398
:101A40008E93FE01E55BFF4F808191810097D1F677
:101A500027C08E01055B1F4FFE01E35BFF4F6081D6
:101A60007181828193810E944900DC01CB01F801E0
:101A700091838083DE01A95BBF4FFE01E55BFF4FD1
:101A8000808191818D939C93FE01E95BFF4F808162
:101A900091810197F1F7FE01E95BFF4F918380830C
:101AA000FE01ED59FF4F8081882F90E0807190708A
:101AB000959587959595879595958795959587950E
:101AC000982F80E063E0492F0E94C408FE01ED5981
:101AD000FF4F8081882F90E0807290709595879558
:101AE00095958795959587959595879595958795DE
:101AF000982F80E064E0492F0E94C408FE01ED5950
:101B0000FF4F8081882F90E080749070082E892F7D
:101B1000000C881F990B000C881F991F982F80E0DC
:101B200065E0492F0E94C408FE01ED59FF4F8081F6
:101B3000982F991F9927991F80E066E0492F0E94EE
:101B4000C408FE01ED5BFF4F80E090E0A0E8BFE33A
:101B500080839183A283B3838E01015C1F4FFE01BA
:101B6000ED5BFF4F608171818281938120E030E0E5
:101B70004AEF54E40E941F02DC01CB01F80180838C
:101B80009183A283B383FE01FF966081718182817C
:101B9000938120E030E040E85FE30E9479038823EE
:101BA0002CF481E090E09EAF8DAF46C0FE01FF9621
:101BB000608171818281938120E03FEF4FE757E49C
:101BC0000E941903181664F5FE01ED5BFF4F60815A
:101BD00071818281938120E030E040E251E40E94F3
:101BE0001F02DC01CB01BC01CD010E944900DC01D8
:101BF000CB019EAF8DAF0FC088EC90E09CAF8BAF58
:101C00008BAD9CAD0197F1F79CAF8BAF8DAD9EADC9
:101C100001979EAF8DAF8DAD9EAD009769F716C051
:101C2000FE01FF9660817181828193810E9449004B
:101C3000DC01CB019EAF8DAF8DAD9EAD9AAF89AF6C
:101C400089AD9AAD0197F1F79AAF89AF80E062E074
:101C500040E00E94C40880E090E0A0E8BFE38DABC4
:101C60009EABAFABB8AF6DA97EA98FA998AD20E0B0
:101C700030E04AEF54E40E941F02DC01CB0189AB43
:101C80009AABABABBCAB69A97AA98BA99CA920E0A4
:101C900030E040E85FE30E94790388232CF481E080
:101CA00090E098AB8FA73FC069A97AA98BA99CA99E
:101CB00020E03FEF4FE757E40E94190318164CF558
:101CC0006DA97EA98FA998AD20E030E040E251E4F3
:101CD0000E941F02DC01CB01BC01CD010E94490022
:101CE000DC01CB0198AB8FA70FC088EC90E09EA7DA
:101CF0008DA78DA59EA50197F1F79EA78DA78FA50E
:101D000098A9019798AB8FA78FA598A9009769F715
:101D100014C069A97AA98BA99CA90E944900DC0179
:101D2000CB0198AB8FA78FA598A99CA78BA78BA554
:101D30009CA50197F1F79CA78BA780E062E041E0AA
:101D40000E94C40880E090E0A0E8BFE38FA398A7BA
:101D5000A9A7BAA76FA178A589A59AA520E030E028
:101D60004AEF54E40E941F02DC01CB018BA39CA329
:101D7000ADA3BEA36BA17CA18DA19EA120E030E00C
:101D800040E85FE30E94790388232CF481E090E02F
:101D90009AA389A33FC06BA17CA18DA19EA120E045
:101DA0003FEF4FE757E40E94190318164CF56FA157
:101DB00078A589A59AA520E030E040E251E40E9490
:101DC0001F02DC01CB01BC01CD010E944900DC01F6
:101DD000CB019AA389A30FC088EC90E098A38F8FC2
:101DE0008F8D98A10197F1F798A38F8F89A19AA160
:101DF00001979AA389A389A19AA1009769F714C0B2
:101E00006BA17CA18DA19EA10E944900DC01CB01A8
:101E10009AA389A389A19AA19E8F8D8F8D8D9E8D66
:101E20000197F1F79E8F8D8FFE01ED59FF4F808155
:101E3000982F917080E063E0492F0E94C408FE0152
:101E4000ED59FF4F8081882F90E0827090709595BA
:101E50008795982F80E064E0492F0E94C408FE0116
:101E6000ED59FF4F8081882F90E084709070959598
:101E7000879595958795982F80E065E0492F0E947A
:101E8000C408FE01ED59FF4F8081882F90E08870D3
:101E90009070959587959595879595958795982FA9
:101EA00080E066E0492F0E94C40880E090E0A0E84E
:101EB000BFE3898F9A8FAB8FBC8F698D7A8D8B8DA5
:101EC0009C8D20E030E04AEF54E40E941F02DC01C8
:101ED000CB018D8B9E8BAF8BB88F6D897E898F895F
:101EE000988D20E030E040E85FE30E94790388238A
:101EF0002CF481E090E09C8B8B8B3FC06D897E89B8
:101F00008F89988D20E03FEF4FE757E40E94190337
:101F100018164CF5698D7A8D8B8D9C8D20E030E004
:101F200040E251E40E941F02DC01CB01BC01CD0163
:101F30000E944900DC01CB019C8B8B8B0FC088EC8D
:101F400090E09A8B898B89899A890197F1F79A8B0E
:101F5000898B8B899C8901979C8B8B8B8B899C8926
:101F6000009769F714C06D897E898F89988D0E94CA
:101F70004900DC01CB019C8B8B8B8B899C89988BD6
:101F80008F878F8598890197F1F7988B8F8780E0ED
:101F900062E040E00E94C40880E090E0A0E8BFE377
:101FA0008B879C87AD87BE876B857C858D859E855D
:101FB00020E030E04AEF54E40E941F02DC01CB0134
:101FC0008F839887A987BA876F81788589859A8555
:101FD00020E030E040E85FE30E94790388232CF49E
:101FE00081E090E09E838D833FC06F8178858985F5
:101FF0009A8520E03FEF4FE757E40E941903181637
:102000004CF56B857C858D859E8520E030E040E237
:1020100051E40E941F02DC01CB01BC01CD010E94F2
:102020004900DC01CB019E838D830FC088EC90E0DA
:102030009C838B838B819C810197F1F79C838B839D
:102040008D819E8101979E838D838D819E810097D6
:1020500069F714C06F81788589859A850E94490047
:10206000DC01CB019E838D838D819E819A83898340
:1020700089819A810197F1F79A838983CD59DF4F3E
:102080000FB6F894DEBF0FBECDBFCF91DF911F9189
:102090000F9108950F931F93DF93CF93CDB7DEB7C2
:1020A000C356D0400FB6F894DEBF0FBECDBFFE01C1
:1020B000ED59FF4F808380E061E041E00E94C40859
:1020C000FE01E15AFF4F80E090E0A0E8BFE380838B
:1020D0009183A283B3838E01055A1F4FFE01E15AFB
:1020E000FF4F608171818281938120E030E04AEF6F
:1020F00054E40E941F02DC01CB01F801808391832C
:10210000A283B383FE01E55AFF4F60817181828112
:10211000938120E030E040E85FE30E947903882368
:1021200044F4FE01E75AFF4F81E090E09183808301
:1021300064C0FE01E55AFF4F608171818281938105
:1021400020E03FEF4FE757E40E94190318160CF008
:1021500043C0FE01E15AFF4F60817181828193810A
:1021600020E030E040E251E40E941F02DC01CB019C
:102170008E01075A1F4FBC01CD010E944900DC01AE
:10218000CB01F801918380831FC0FE01E95AFF4F04
:1021900088EC90E091838083FE01E95AFF4F8081B3
:1021A00091810197F1F7FE01E95AFF4F91838083F6
:1021B000DE01A75ABF4FFE01E75AFF4F8081918190
:1021C000019711969C938E93FE01E75AFF4F8081F1
:1021D00091810097D1F627C08E01075A1F4FFE014B
:1021E000E55AFF4F60817181828193810E9449008D
:1021F000DC01CB01F80191838083DE01AB5ABF4F34
:10220000FE01E75AFF4F808191818D939C93FE01DF
:10221000EB5AFF4F808191810197F1F7FE01EB5A54
:10222000FF4F9183808380E062E041E00E94C40818
:10223000FE01EF5AFF4F80E090E0A0E8BFE380830B
:102240009183A283B3838E01035B1F4FFE01EF5A7C
:10225000FF4F608171818281938120E030E04AEFFD
:1022600054E40E941F02DC01CB01F80180839183BA
:10227000A283B383FE01E35BFF4F608171818281A2
:10228000938120E030E040E85FE30E9479038823F7
:1022900044F4FE01E55BFF4F81E090E09183808391
:1022A00064C0FE01E35BFF4F608171818281938195
:1022B00020E03FEF4FE757E40E94190318160CF097
:1022C00043C0FE01EF5AFF4F60817181828193818B
:1022D00020E030E040E251E40E941F02DC01CB012B
:1022E0008E01055B1F4FBC01CD010E944900DC013E
:1022F000CB01F801918380831FC0FE01E75BFF4F94
:1023000088EC90E091838083FE01E75BFF4F808142
:1023100091810197F1F7FE01E75BFF4F9183808385
:10232000DE01A55BBF4FFE01E55BFF4F8081918120
:10233000019711969C938E93FE01E55BFF4F808180
:1023400091810097D1F627C08E01055B1F4FFE01DA
:10235000E35BFF4F60817181828193810E9449001C
:10236000DC01CB01F80191838083DE01A95BBF4FC3
:10237000FE01E55BFF4F808191818D939C93FE016F
:10238000E95BFF4F808191810197F1F7FE01E95BE5
:10239000FF4F91838083FE01ED59FF4F8081882F8D
:1023A00090E0807190709595879595958795959516
:1023B000879595958795982F80E063E0492F0E9437
:1023C000C408FE01ED59FF4F8081882F90E0807294
:1023D0009070959587959595879595958795959501
:1023E000879595958795982F80E064E0492F0E9406
:1023F000C408FE01ED59FF4F8081882F90E0807462
:102400009070082E892F000C881F990B000C881FD4
:10241000991F982F80E065E0492F0E94C408FE01B3
:10242000ED59FF4F8081982F991F9927991F80E0C0
:1024300066E0492F0E94C408FE01ED5BFF4F80E07B
:1024400090E0A0E8BFE380839183A283B3838E01F1
:10245000015C1F4FFE01ED5BFF4F60817181828146
:10246000938120E030E04AEF54E40E941F02DC0137
:10247000CB01F80180839183A283B383FE01FF9691
:10248000608171818281938120E030E040E85FE3E8
:102490000E94790388232CF481E090E09EAF8DAFF9
:1024A00046C0FE01FF96608171818281938120E0A8
:1024B0003FEF4FE757E40E941903181664F5FE0139
:1024C000ED5BFF4F608171818281938120E030E07C
:1024D00040E251E40E941F02DC01CB01BC01CD01AE
:1024E0000E944900DC01CB019EAF8DAF0FC088EC8C
:1024F00090E09CAF8BAF8BAD9CAD0197F1F79CAF9B
:102500008BAF8DAD9EAD01979EAF8DAF8DAD9EAD66
:10251000009769F716C0FE01FF9660817181828184
:1025200093810E944900DC01CB019EAF8DAF8DAD40
:102530009EAD9AAF89AF89AD9AAD0197F1F79AAF89
:1025400089AF80E062E040E00E94C40880E090E053
:10255000A0E8BFE38DAB9EABAFABB8AF6DA97EA9D2
:102560008FA998AD20E030E04AEF54E40E941F02AA
:10257000DC01CB0189AB9AABABABBCAB69A97AA947
:102580008BA99CA920E030E040E85FE30E9479033A
:1025900088232CF481E090E098AB8FA73FC069A915
:1025A0007AA98BA99CA920E03FEF4FE757E40E944E
:1025B000190318164CF56DA97EA98FA998AD20E0D6
:1025C00030E040E251E40E941F02DC01CB01BC017B
:1025D000CD010E944900DC01CB0198AB8FA70FC051
:1025E00088EC90E09EA78DA78DA59EA50197F1F799
:1025F0009EA78DA78FA598A9019798AB8FA78FA5A8
:1026000098A9009769F714C069A97AA98BA99CA910
:102610000E944900DC01CB0198AB8FA78FA598A938
:102620009CA78BA78BA59CA50197F1F79CA78BA7CF
:1026300080E062E041E00E94C40880E090E0A0E811
:10264000BFE38FA398A7A9A7BAA76FA178A589A56B
:102650009AA520E030E04AEF54E40E941F02DC011A
:10266000CB018BA39CA3ADA3BEA36BA17CA18DA129
:102670009EA120E030E040E85FE30E9479038823D8
:102680002CF481E090E09AA389A33FC06BA17CA1C8
:102690008DA19EA120E03FEF4FE757E40E94190370
:1026A00018164CF56FA178A589A59AA520E030E011
:1026B00040E251E40E941F02DC01CB01BC01CD01CC
:1026C0000E944900DC01CB019AA389A30FC088ECCA
:1026D00090E098A38F8F8F8D98A10197F1F798A321
:1026E0008F8F89A19AA101979AA389A389A19AA101
:1026F000009769F714C06BA17CA18DA19EA10E94D7
:102700004900DC01CB019AA389A389A19AA19E8FDC
:102710008D8F8D8D9E8D0197F1F79E8F8D8FFE0190
:10272000ED59FF4F8081982F917080E063E0492F31
:102730000E94C408FE01ED59FF4F8081882F90E070
:102740008270907095958795982F80E064E0492F6E
:102750000E94C408FE01ED59FF4F8081882F90E050
:10276000847090709595879595958795982F80E0C2
:1027700065E0492F0E94C408FE01ED59FF4F80819A
:10278000882F90E08870907095958795959587959E
:1027900095958795982F80E066E0492F0E94C408A0
:1027A00080E090E0A0E8BFE3898F9A8FAB8FBC8F69
:1027B000698D7A8D8B8D9C8D20E030E04AEF54E45A
:1027C0000E941F02DC01CB018D8B9E8BAF8BB88FDB
:1027D0006D897E898F89988D20E030E040E85FE345
:1027E0000E94790388232CF481E090E09C8B8B8BF2
:1027F0003FC06D897E898F89988D20E03FEF4FE73C
:1028000057E40E94190318164CF5698D7A8D8B8D4B
:102810009C8D20E030E040E251E40E941F02DC0188
:10282000CB01BC01CD010E944900DC01CB019C8B96
:102830008B8B0FC088EC90E09A8B898B89899A8961
:102840000197F1F79A8B898B8B899C8901979C8BD7
:102850008B8B8B899C89009769F714C06D897E8961
:102860008F89988D0E944900DC01CB019C8B8B8B5A
:102870008B899C89988B8F878F8598890197F1F731
:10288000988B8F8780E062E040E00E94C40880E07F
:1028900090E0A0E8BFE38B879C87AD87BE876B8500
:1028A0007C858D859E8520E030E04AEF54E40E94CF
:1028B0001F02DC01CB018F839887A987BA876F81BC
:1028C000788589859A8520E030E040E85FE30E94C2
:1028D000790388232CF481E090E09E838D833FC0B0
:1028E0006F81788589859A8520E03FEF4FE757E42F
:1028F0000E94190318164CF56B857C858D859E8585
:1029000020E030E040E251E40E941F02DC01CB01F4
:10291000BC01CD010E944900DC01CB019E838D8367
:102920000FC088EC90E09C838B838B819C81019706
:10293000F1F79C838B838D819E8101979E838D838C
:102940008D819E81009769F714C06F817885898594
:102950009A850E944900DC01CB019E838D838D8185
:102960009E819A83898389819A810197F1F79A835D
:102970008983CD59DF4F0FB6F894DEBF0FBECDBFB0
:10298000CF91DF911F910F910895DF93CF9300D0E6
:102990000F92CDB7DEB79B838A8319820EC08981DF
:1029A000282F30E08A819B81FC01E20FF31F808198
:1029B0000E944A1089818F5F89838981282F30E0A6
:1029C0008A819B81FC01E20FF31F8081882339F704
:1029D0000F900F900F90CF91DF910895DF93CF93D9
:1029E00000D000D00F92CDB7DEB78A836B838A8187
:1029F000282F30E03D832C838C819D81813091058F
:102A0000C1F02C813D81223031052CF48C819D81D7
:102A1000009761F019C02C813D812230310569F0A9
:102A20008C819D818330910561F00EC08B818983FB
:102A30000BC08B81805C898307C08B81805F898319
:102A400003C08B81805B8983898180680E94CF0B62
:102A50000F900F900F900F900F90CF91DF910895EE
:102A6000DF93CF9300D000D0CDB7DEB789836A83E0
:102A70005C834B8389816A810E94EE148B819C81E7
:102A80000E94C5140F900F900F900F90CF91DF917F
:102A90000895DF93CF93CDB7DEB762970FB6F89462
:102AA000DEBF0FBECDBF9A8B898B89899A899E0123
:102AB0002F5F3F4FB9014AE050E00E944B1FCE010B
:102AC00001960E94C51462960FB6F894DEBF0FBE41
:102AD000CDBFCF91DF910895DF93CF93CDB7DEB710
:102AE00081E00E94CF0BCF91DF910895DF93CF93C8
:102AF000CDB7DEB760970FB6F894DEBF0FBECDBF7F
:102B000081E064E040E00E94D90781E065E040E0B8
:102B10000E94D90781E066E040E00E94D90781E089
:102B200067E040E00E94D90783E062E040E00E9455
:102B3000D90783E063E040E00E94D90783E064E0C6
:102B400040E00E94D90783E065E040E00E94D90799
:102B50001F86B4C08F85982F9C5F81E0692F41E06C
:102B60000E94D9078F85982F9C5F81E0692F40E0F4
:102B70000E94C408188A22C08889982F9E5F83E02B
:102B8000692F0E94AF098823B1F48F85882F90E0C8
:102B9000880F991F880F991F982F8889890F8F5F39
:102BA0000E94631660960FB6F894DEBF0FBECDBFCD
:102BB000CF91DF91089588898F5F888B88898430D1
:102BC000D8F28F85982F9C5F81E0692F40E00E94AA
:102BD000D90780E090E0A0EAB0E48B879C87AD87BE
:102BE000BE876B857C858D859E8520E030E04AEF31
:102BF00054E40E941F02DC01CB018F839887A987D0
:102C0000BA876F81788589859A8520E030E040E831
:102C10005FE30E94790388232CF481E090E09E8397
:102C20008D833FC06F81788589859A8520E03FEF4D
:102C30004FE757E40E94190318164CF56B857C8505
:102C40008D859E8520E030E040E251E40E941F0225
:102C5000DC01CB01BC01CD010E944900DC01CB01AC
:102C60009E838D830FC088EC90E09C838B838B8147
:102C70009C810197F1F79C838B838D819E810197C5
:102C80009E838D838D819E81009769F714C06F812B
:102C9000788589859A850E944900DC01CB019E8355
:102CA0008D838D819E819A83898389819A81019701
:102CB000F1F79A8389838F858F5F8F878F85843023
:102CC00008F448CF45CFDF93CF9300D000D0CDB7E5
:102CD000DEB78A8319828A81282F30E03C832B83D8
:102CE0008B819C818830910509F470C02B813C81D7
:102CF000293031055CF58B819C818430910509F484
:102D000059C02B813C81253031059CF48B819C81FD
:102D10008230910509F448C02B813C812330310574
:102D20000CF045C08B819C818130910509F439C03C
:102D300067C02B813C812630310509F441C08B816D
:102D40009C81873091050CF03EC037C02B813C81BF
:102D50002C30310509F446C08B819C818D30910562
:102D60005CF42B813C812A303105B1F18B819C814F
:102D70008B309105A4F52DC02B813C812E3031057F
:102D8000B9F18B819C818E3091057CF12B813C8146
:102D90002F30310579F18B819C818031910569F16A
:102DA0002FC081E089832EC082E089832BC083E01D
:102DB000898328C08EE5898325C084E0898322C069
:102DC00085E089831FC086E089831CC08EE58983E6
:102DD00019C087E0898316C088E0898313C089E021
:102DE000898310C08EE589830DC08DE289830AC076
:102DF000198208C08BE2898305C083E2898302C0FF
:102E00008A81898389810F900F900F900F90CF91C5
:102E1000DF9108950F931F93DF93CF93CDB7DEB764
:102E2000CA56D0400FB6F894DEBF0FBECDBFEFE557
:102E3000F0E0808180688083CE01825A9F4FA896FF
:102E40009FAF8EAFA89782EC91E0AA969FAF8EAF0E
:102E5000AA9798E0AB969FAFAB97AA96EEADFFAD61
:102E6000AA970080AA968EAD9FADAA970196AA96C2
:102E70009FAF8EAFAA97A896EEADFFADA897008240
:102E8000A8968EAD9FADA8970196A8969FAF8EAFDE
:102E9000A897AB969FADAB979150AB969FAFAB9772
:102EA000AB96EFADAB97EE23C1F6CE01825A9F4FA2
:102EB0000E94A3050E941D0B0E946C1580E690E005
:102EC0000E94C51481E060E00E94EE1481E790E06A
:102ED0000E94C514FE01EF5AFF4F80E090E0AAE780
:102EE000B3E480839183A283B3838E01035B1F4F7E
:102EF000FE01EF5AFF4F608171818281938120E052
:102F000030E04AEF54E40E941F02DC01CB01F801DB
:102F100080839183A283B383FE01E35BFF4F6081D3
:102F200071818281938120E030E040E85FE30E947C
:102F30007903882344F4FE01E55BFF4F81E090E0D4
:102F40009183808364C0FE01E35BFF4F60817181E8
:102F50008281938120E03FEF4FE757E40E941903FD
:102F600018160CF043C0FE01EF5AFF4F60817181CB
:102F70008281938120E030E040E251E40E941F0210
:102F8000DC01CB018E01055B1F4FBC01CD010E940E
:102F90004900DC01CB01F801918380831FC0FE0151
:102FA000E75BFF4F88EC90E091838083FE01E75B55
:102FB000FF4F808191810197F1F7FE01E75BFF4FA1
:102FC00091838083DE01A55BBF4FFE01E55BFF4F70
:102FD00080819181019711969C938E93FE01E55B10
:102FE000FF4F808191810097D1F627C08E01055B4C
:102FF0001F4FFE01E35BFF4F6081718182819381EE
:103000000E944900DC01CB01F80191838083DE013D
:10301000A95BBF4FFE01E55BFF4F808191818D93DE
:103020009C93FE01E95BFF4F808191810197F1F74D
:10303000FE01E95BFF4F918380830E946C1582E85B
:1030400090E00E94C51481E060E00E94EE1483E9E4
:1030500090E00E94C514FE01ED5BFF4F80E090E020
:10306000AAE7B3E480839183A283B3838E01015CDA
:103070001F4FFE01ED5BFF4F608171818281938163
:1030800020E030E04AEF54E40E941F02DC01CB0153
:10309000F80180839183A283B383FE01FF96608150
:1030A00071818281938120E030E040E85FE30E94FB
:1030B000790388232CF481E090E09EAF8DAF46C069
:1030C000FE01FF96608171818281938120E03FEF54
:1030D0004FE757E40E941903181664F5FE01ED5BF3
:1030E000FF4F608171818281938120E030E040E276
:1030F00051E40E941F02DC01CB01BC01CD010E9402
:103100004900DC01CB019EAF8DAF0FC088EC90E091
:103110009CAF8BAF8BAD9CAD0197F1F79CAF8BAFA4
:103120008DAD9EAD01979EAF8DAF8DAD9EAD0097DD
:1031300069F716C0FE01FF966081718182819381DB
:103140000E944900DC01CB019EAF8DAF8DAD9EADDD
:103150009AAF89AF89AD9AAD0197F1F79AAF89AF70
:103160008CEC0E943D06FE01EA5AFF4F108206C019
:103170000E94B91BFE01EA5AFF4F8083FE01EA5A02
:10318000FF4F80818823A1F30E946C1584EA90E0B0
:103190000E94C51481E060E00E94EE1482EB90E092
:1031A0000E94C5140E947615FE01E85AFF4F8083E5
:1031B000FE01E85AFF4F80818B3209F0F7C0FE0113
:1031C000E95AFF4F10828DED0E943D068FEF0E945D
:1031D0003D060E946C1582EC90E00E94C51481E0CF
:1031E00060E00E94EE14CE01875A9F4F0E94021D9C
:1031F000CE01875A9F4F0E947C1E0E9451068A3A38
:1032000051F50E946C1582ED90E00E94C51481E09A
:1032100060E00E94EE1483EE90E00E94C5148FE0FF
:103220000E94A11E83E00E94A11E0E946C1582EDE7
:1032300090E00E94C51481E060E00E94EE1484EFEB
:1032400090E00E94C5148FE00E94A11EFE01E95A81
:10325000FF4F108299CF0E946C1585E091E00E948B
:10326000C51480E090E0AAE7B3E48DAB9EABAFABB2
:10327000B8AF6DA97EA98FA998AD20E030E04AEFE4
:1032800054E40E941F02DC01CB0189AB9AABABABCB
:10329000BCAB69A97AA98BA99CA920E030E040E8E1
:1032A0005FE30E94790388232CF481E090E098ABDF
:1032B0008FA73FC069A97AA98BA99CA920E03FEFFD
:1032C0004FE757E40E94190318164CF56DA97EA923
:1032D0008FA998AD20E030E040E251E40E941F0247
:1032E000DC01CB01BC01CD010E944900DC01CB0116
:1032F00098AB8FA70FC088EC90E09EA78DA78DA5F7
:103300009EA50197F1F79EA78DA78FA598A9019774
:1033100098AB8FA78FA598A9009769F714C069A9E2
:103320007AA98BA99CA90E944900DC01CB0198AB2A
:103330008FA78FA598A99CA78BA78BA59CA5019764
:10334000F1F79CA78BA7DE01A95ABF4FFE01E95AEE
:10335000FF4F80818F5F8C93FE01E95AFF4F808180
:10336000833021F488E60E943D0603C089E60E946E
:103370003D06FE01E95AFF4F8081833009F029CFD5
:103380000E946C1584E191E00E94C51481E060E028
:103390000E94EE1485E291E00E94C5148CE30E9425
:1033A000A11EFE01E95AFF4F1082EECEFE01E85A3F
:1033B000FF4F80818D3209F0E7CEFE01E95AFF4FC1
:1033C00010828DED0E943D068EEE0E943D060E9409
:1033D0006C1582EC90E00E94C51481E060E00E94D0
:1033E000EE14CE01875A9F4F0E94021DCE01875ACC
:1033F0009F4F0E947C1E0E9451068A3A09F00EC11E
:103400000E946C1586E391E00E94C51480E090E074
:10341000AAE7B3E48FA398A7A9A7BAA76FA178A535
:1034200089A59AA520E030E04AEF54E40E941F02EB
:10343000DC01CB018BA39CA3ADA3BEA36BA17CA19C
:103440008DA19EA120E030E040E85FE30E94790377
:1034500088232CF481E090E09AA389A33FC06BA15C
:103460007CA18DA19EA120E03FEF4FE757E40E9491
:10347000190318164CF56FA178A589A59AA520E027
:1034800030E040E251E40E941F02DC01CB01BC01AC
:10349000CD010E944900DC01CB019AA389A30FC092
:1034A00088EC90E098A38F8F8F8D98A10197F1F70A
:1034B00098A38F8F89A19AA101979AA389A389A123
:1034C0009AA1009769F714C06BA17CA18DA19EA160
:1034D0000E944900DC01CB019AA389A389A19AA18A
:1034E0009E8F8D8F8D8D9E8D0197F1F79E8F8D8F85
:1034F000FE01EB5AFF4F108206C00E94B91BFE016D
:10350000EB5AFF4F8083FE01EB5AFF4F80818823E7
:10351000A1F30E946C1587E491E00E94C51481E03C
:1035200060E00E94EE1488E591E00E94C51480E0FE
:1035300090E0AAE7B3E4898F9A8FAB8FBC8F698D37
:103540007A8D8B8D9C8D20E030E04AEF54E40E9410
:103550001F02DC01CB018D8B9E8BAF8BB88F6D89E9
:103560007E898F89988D20E030E040E85FE30E94FB
:10357000790388232CF481E090E09C8B8B8B3FC0F7
:103580006D897E898F89988D20E03FEF4FE757E462
:103590000E94190318164CF5698D7A8D8B8D9C8DC0
:1035A00020E030E040E251E40E941F02DC01CB0148
:1035B000BC01CD010E944900DC01CB019C8B8B8BAF
:1035C0000FC088EC90E09A8B898B89899A89019742
:1035D000F1F79A8B898B8B899C8901979C8B8B8BBC
:1035E0008B899C89009769F714C06D897E898F89C2
:1035F000988D0E944900DC01CB019C8B8B8B8B89C1
:103600009C89988B8F878F8598890197F1F7988B84
:103610008F87FE01E95AFF4F1082B6CD0E946C15CC
:1036200085E091E00E94C51480E090E0AAE7B3E451
:103630008B879C87AD87BE876B857C858D859E85B6
:1036400020E030E04AEF54E40E941F02DC01CB018D
:103650008F839887A987BA876F81788589859A85AE
:1036600020E030E040E85FE30E94790388232CF4F7
:1036700081E090E09E838D833FC06F81788589854E
:103680009A8520E03FEF4FE757E40E941903181690
:103690004CF56B857C858D859E8520E030E040E291
:1036A00051E40E941F02DC01CB01BC01CD010E944C
:1036B0004900DC01CB019E838D830FC088EC90E034
:1036C0009C838B838B819C810197F1F79C838B83F7
:1036D0008D819E8101979E838D838D819E81009730
:1036E00069F714C06F81788589859A850E944900A1
:1036F000DC01CB019E838D838D819E819A8389839A
:1037000089819A810197F1F79A838983DE01A95A09
:10371000BF4FFE01E95AFF4F80818F5F8C93FE01FE
:10372000E95AFF4F8081833021F488E60E943D06EC
:1037300003C089E60E943D06FE01E95AFF4F8081E1
:10374000833009F044CE0E946C1584E191E00E9420
:10375000C51481E060E00E94EE1485E291E00E94D1
:10376000C5148CE30E94A11EFE01E95AFF4F10828E
:103770000BCDDF93CF93CDB7DEB7A8970FB6F894F4
:10378000DEBF0FBECDBF0E946C1582EC90E00E94A0
:10379000C51481E060E00E94EE14CE014E960E94B6
:1037A000021D0E946C1589E691E00E94C51481E01B
:1037B00060E00E94EE1480E891E00E94C51481E070
:1037C0006BE00E94EE14CE014E969E012D5D3F4FA0
:1037D000B9010E94B21D8D8F8D8D813009F087C097
:1037E000CE014E960E947C1E0E946C158CE891E0E2
:1037F0000E94C51481E060E00E94EE148CE991E023
:103800000E94C51480E090E0AAE7B3E4898F9A8F04
:10381000AB8FBC8F698D7A8D8B8D9C8D20E030E0D5
:103820004AEF54E40E941F02DC01CB018D8B9E8B7A
:10383000AF8BB88F6D897E898F89988D20E030E0BD
:1038400040E85FE30E94790388232CF481E090E054
:103850009C8B8B8B3FC06D897E898F89988D20E0F2
:103860003FEF4FE757E40E94190318164CF5698D96
:103870007A8D8B8D9C8D20E030E040E251E40E94F7
:103880001F02DC01CB01BC01CD010E944900DC011B
:10389000CB019C8B8B8B0FC088EC90E09A8B898B33
:1038A00089899A890197F1F79A8B898B8B899C89F1
:1038B00001979C8B8B8B8B899C89009769F714C02F
:1038C0006D897E898F89988D0E944900DC01CB012A
:1038D0009C8B8B8B8B899C89988B8F878F85988904
:1038E0000197F1F7988B8F8781E088A781C00E94AC
:1038F0006C158CE891E00E94C51481E060E00E94A4
:10390000EE1489EA91E00E94C51480E090E0AAE7F5
:10391000B3E48B879C87AD87BE876B857C858D855F
:103920009E8520E030E04AEF54E40E941F02DC0153
:10393000CB018F839887A987BA876F81788589851E
:103940009A8520E030E040E85FE30E947903882315
:103950002CF481E090E09E838D833FC06F81788559
:1039600089859A8520E03FEF4FE757E40E941903CD
:1039700018164CF56B857C858D859E8520E030E0A2
:1039800040E251E40E941F02DC01CB01BC01CD01E9
:103990000E944900DC01CB019E838D830FC088EC1F
:1039A00090E09C838B838B819C810197F1F79C83B2
:1039B0008B838D819E8101979E838D838D819E81D6
:1039C000009769F714C06F81788589859A850E9470
:1039D0004900DC01CB019E838D838D819E819A837A
:1039E000898389819A810197F1F79A83898318A63F
:1039F00088A5A8960FB6F894DEBF0FBECDBFCF91B5
:103A0000DF910895DF93CF93CDB7DEB762970FB6FE
:103A1000F894DEBF0FBECDBF9A8B898B188A91C0F8
:103A20000E9476158F8780E090E0AAE7B3E48B8749
:103A30009C87AD87BE876B857C858D859E8520E0C4
:103A400030E04AEF54E40E941F02DC01CB018F8377
:103A50009887A987BA876F81788589859A8520E0BC
:103A600030E040E85FE30E94790388232CF481E092
:103A700090E09E838D833FC06F81788589859A858C
:103A800020E03FEF4FE757E40E94190318164CF56A
:103A90006B857C858D859E8520E030E040E251E499
:103AA0000E941F02DC01CB01BC01CD010E94490034
:103AB000DC01CB019E838D830FC088EC90E09C835A
:103AC0008B838B819C810197F1F79C838B838D8104
:103AD0009E8101979E838D838D819E81009769F7DA
:103AE00014C06F81788589859A850E944900DC0120
:103AF000CB019E838D838D819E819A838983898169
:103B00009A810197F1F79A8389838F858E35C9F061
:103B10008F858332B1F08F858D3299F08F858B320E
:103B200081F08889282F30E089899A89FC01E20F89
:103B3000F31F8F8580838AE20E944A1088898F5FF5
:103B4000888B8889853008F46BCF0E947615833284
:103B5000E1F762960FB6F894DEBF0FBECDBFCF91EE
:103B6000DF910895DF93CF93CDB7DEB765970FB69A
:103B7000F894DEBF0FBECDBF9B8B8A8B7D8B6C8B89
:103B800081E08F87198AA6C00E947615888B80E015
:103B900090E0AAE7B3E48B879C87AD87BE876B85EF
:103BA0007C858D859E8520E030E04AEF54E40E94BC
:103BB0001F02DC01CB018F839887A987BA876F81A9
:103BC000788589859A8520E030E040E85FE30E94AF
:103BD000790388232CF481E090E09E838D833FC09D
:103BE0006F81788589859A8520E03FEF4FE757E41C
:103BF0000E94190318164CF56B857C858D859E8572
:103C000020E030E040E251E40E941F02DC01CB01E1
:103C1000BC01CD010E944900DC01CB019E838D8354
:103C20000FC088EC90E09C838B838B819C810197F3
:103C3000F1F79C838B838D819E8101979E838D8379
:103C40008D819E81009769F714C06F817885898581
:103C50009A850E944900DC01CB019E838D838D8172
:103C60009E819A83898389819A810197F1F79A834A
:103C7000898388898E3571F18889833259F18889E1
:103C80008D3241F188898B3229F18989282F30E0E2
:103C90008C899D89FC01E20FF31F888980838989C3
:103CA000282F30E08C899D89FC01E20FF31F4081B1
:103CB0008989282F30E08A899B89FC01E20FF31F54
:103CC0008081481709F01F868AE20E944A1089897C
:103CD0008F5F898B8989853008F456CF0E947615CD
:103CE0008332E1F78F8565960FB6F894DEBF0FBE7D
:103CF000CDBFCF91DF910895DF93CF9300D00F9286
:103D0000CDB7DEB79B838A83198212C08981282FA1
:103D100030E08A819B81FC01E20FF31F80810E94C9
:103D20003D0689818F5F89830E9451068531E1F7C5
:103D30008981853058F30F900F900F90CF91DF91CC
:103D40000895DF93CF93CDB7DEB72C970FB6F894D5
:103D5000DEBF0FBECDBF8F83CE01019699878887C6
:103D6000EAECF1E0FB87EA87F6E0FC87EA85FB8571
:103D700000808A859B8501969B878A87E885F985DF
:103D80000082888599850196998788879C859150BE
:103D90009C87EC85EE2351F786EE9EE10E94C707D3
:103DA000CE0101960E9433079091D2018F8198171E
:103DB000D8F31092D2010E94A4072C960FB6F89463
:103DC000DEBF0FBECDBFCF91DF910895DF93CF93BC
:103DD000CDB7DEB78091D2018F5F8093D201CF91B2
:103DE000DF910895A1E21A2EAA1BBB1BFD010DC095
:103DF000AA1FBB1FEE1FFF1FA217B307E407F5079B
:103E000020F0A21BB30BE40BF50B661F771F881F76
:103E1000991F1A9469F760957095809590959B010C
:103E2000AC01BD01CF0108952F923F924F925F9256
:103E30006F927F928F929F92AF92BF92CF92DF92BA
:103E4000EF92FF920F931F93CF93DF93CDB7DEB71F
:103E5000CA1BDB0B0FB6F894DEBF0FBECDBF0994B3
:103E60002A88398848885F846E847D848C849B840A
:103E7000AA84B984C884DF80EE80FD800C811B8118
:103E8000AA81B981CE0FD11D0FB6F894DEBF0FBE47
:103E9000CDBFED010895FB019F01E8944230C4F0CD
:103EA0004532B4F44A3029F497FB1EF4909581957D
:103EB0009F4F642F77270E947C1F805D8A330CF010
:103EC000895D8193CB010097A1F716F45DE25193D0
:103ED0001082C9010C946C1FDC01FC01672F7191E9
:103EE0007723E1F7329704C07C916D9370836291E0
:103EF000AE17BF07C8F30895AA1BBB1B51E107C04B
:103F0000AA1FBB1FA617B70710F0A61BB70B881F69
:103F1000991F5A95A9F780959095BC01CD010895F8
:043F2000F894FFCF43
:103F2400202046696E616C2050726F6A656374204C
:103F3400004564676573204469706C6F6D61203758
:103F4400390020202020204D616465204279202002
:103F54002020002020202041686D656420416C6988
:103F6400202020002B203A204F70656E20446F6F74
:103F740072002D203A204368616E6765205061739A
:103F84007300706C7A20656E74657220706173734F
:103F94003A0020202020446F6F7220697320202073
:103FA400202000202020556E6C6F636B696E6720A3
:103FB40020202000202020206C6F636B696E672016
:103FC400202020200057726F6E6720506173737732
:103FD4006F72640020202020204552524F5220202E
:103FE40020202020002057524F4E47203320545287
:103FF400494553202000436F7272656374205061F9
:104004007373776F72640050617373776F72642097
:104014004368616E6765640020205375636365734C
:104024007366756C6C79202000706C7A2072652D33
:10403400656E7465722070617373207468653A00EC
:1040440073616D6520706173733A20005468652054
:10405400322050617373776F72647300417265200C
:10406400457175616C203A2900417265204E6F7468
:1040740020457175616C203A2800000000000000A2
:10408400000000000003802500000000127A0404F0
:00000001FF
